:060000000A128A110C280F
:10000800FE00030EF0000A08F1000A128A15FD2D01
:100018000A128A110F280A128A11F9250A128A115E
:10002800C4000A128A11FA250A128A11C5000A1296
:100038008A11FB250A128A11FB00B601B701B80123
:10004800B901BA01BB01BC01BD01BE01BF01C001BC
:10005800C101C201C301FA0183010A128A11482AA7
:1000680083120313AF0010302A062B04031D3D280A
:100078003E288528C101BA01BB01C001BF01FF307C
:10008800AF009730F6008630F7008030F8000A128B
:100098008A159B250A128A118A3083120313A80035
:1000A800DF300A128A1502250A128A110530F60075
:1000B8008730F700C030F8000A128A159B250A120B
:1000C8008A112330F6008630F7009030F8000A12C3
:1000D8008A159B250A128A119C3083120313A800E3
:1000E800DF300A128A1502250A128A115630F600E4
:1000F8008630F700D030F8000A128A159B250A12BC
:100108008A112A30831203132F0603198C288D288D
:10011800B02823302F06031992289328B0282F0AD5
:10012800031997289828B0280130AC002C08C1077B
:10013800043041020318A128A228BC290A30F20081
:100148003F080A128A1517250A128A118312031307
:100158002F07BF00BC29BC292A302F06031DB5284C
:10016800B628B928BF01C101BC2923302F06031DB9
:10017800BE28BF28BC29B5303F020318C428C528AB
:10018800CA283F08031DC928CA28F4280A128A1554
:10019800F1240A128A110030F6008630F700C030C8
:1001A800F8000A128A159B250A128A113330831225
:1001B8000313AE00BB30AD00DF30AC00AC0BE2285F
:1001C800AD0BE228AE0BE2280A128A15F1240A12B6
:1001D8008A11023083120313C4000030C500BC2901
:1001E800B5303F020318F928FA28BC293F0803193B
:1001F800FE28FF28BC290A128A15F1240A128A113E
:100208007730F6008630F7008030F8000A128A1539
:100218009B250A128A11B530F6008630F700903017
:10022800F8000A128A159B250A128A1183120313F1
:1002380007151215B430C30083299B30A800643019
:10024800F2000030F3004308AC00AD012C08F400C4
:100258002D08F5000A128A1526270A128A11720833
:10026800303E0A128A1502250A128A119C3083121E
:100278000313A8000A30A4000030A5000A30F200D9
:100288000030F3004308AC00AD012C08F4002D0841
:10029800F5000A128A1526270A128A117308831292
:1002A8000313A7007208A6000A128A1568260A1204
:1002B8008A11831203132408303E0A128A15022574
:1002C8000A128A119D3083120313A8000A30A40071
:1002D8000030A5004308AC00AD012C08A6002D088D
:1002E800A7000A128A1568260A128A1183120313B4
:1002F8002408303E0A128A1502250A128A1183122E
:1003080003134308031D89298A2921294308031D4A
:100318008E298F29AF28C201C20A0A128A15F12430
:100328000A128A111230F6008630F700C030F80041
:100338000A128A159B250A128A118312031387143D
:100348004D3083120313AE001930AD004F30AC00AE
:10035800AC0BAC29AD0BAC29AE0BAC290A128A1533
:10036800F1240A128A11831203130711871012113C
:100378000130BA070318BB0A0030BB0710303A0631
:100388003B04031DC829C929352ABA01BB01400805
:100398000319CF29D1290130D2290030C000C83033
:1003A800A8006430F2000030F3003F08AC00AD0153
:1003B8002C08F4002D08F5000A128A1526270A12BF
:1003C8008A117208303E0A128A1502250A128A1109
:1003D800C93083120313A8000A30A4000030A50016
:1003E8000A30F2000030F3003F08AC00AD012C08E1
:1003F800F4002D08F5000A128A1526270A128A1118
:10040800730883120313A7007208A6000A128A153C
:1004180068260A128A11831203132408303E0A122E
:100428008A1502250A128A11CA3083120313A800FA
:100438000A30A4000030A5003F08AC00AD012C082C
:10044800A6002D08A7000A128A1568260A128A1122
:10045800831203132408303E0A128A1502250A1251
:100468008A1183120313400803193B2A3C2A472A9E
:100478003430F6008730F700C830F8000A128A15C1
:100488009B250A128A1108000A128A152C250A12BD
:100498008A1101300A128A154B250A128A11831211
:1004A8000313B5008619592A5A2A5F2A0A128A158F
:1004B800CA250A128A11023083120313440645041E
:1004C800031D672A682ACF2A3503031D6C2A6D2A63
:1004D800992A0330C4000030C5001030B300003042
:1004E800B4000A128A15F1240A128A11A630F600FD
:1004F8008630F700C030F8000A128A159B250A12C8
:100508008A11333083120313B200BB30B100DF30DD
:10051800B000B00B8D2AB10B8D2AB20B8D2A0A12AE
:100528008A15F1240A128A11822B02303506031D1E
:100538009E2A9F2AA82A0430C4000030C500103023
:10054800B3000030B400932A03303506031DAD2AEA
:10055800AE2AB72A0530C4000030C5001030B300F9
:100568000030B400932A04303506031DBC2ABD2A86
:10057800CE2A1E30C300FA01071512150A128A1571
:10058800F1240A128A11073083120313C4000030C1
:10059800C500822B822B073044064504031DD52A4B
:1005A800D62A032B04303506031DDB2ADC2AED2A64
:1005B80043081E3EC3003C304302031CE42AE52ADC
:1005C800822B0130B0003008FA074308C43EC3004C
:1005D800822B05303506031DF22AF32AF82A093042
:1005E800C4000030C500822B06303506031DFD2AE5
:1005F800FE2ACE2A0A30C4000030C500932A0930EA
:1006080044064504031D092B0A2BCE2A043035065F
:10061800031D0F2B102B822B07151215C72A0A1240
:100628008A158F270A128A11023083120313C40015
:100638000030C5000A128A15F1240A128A11A32B68
:100648000A128A156E250A128A11A32B3408AB00E8
:100658003308AA0035080A128A11AD230A128A1132
:10066800A32B3408AB003308AA0035080A128A11F4
:10067800AD230A128A11A32B4208031D442B452BD4
:10068800622B3408AB003308AA0035080A128A1115
:1006980034200A128A11831203134203031D552BB7
:1006A800562BA32B0A128A15F1240A128A1110302C
:1006B80083120313B3000030B4004D2A4203031D14
:1006C800662B672BA32B3408AB003308AA00350828
:1006D8000A128A11AD230A128A11A32B0A128A114F
:1006E80012250A128A11A32B07111211A32B071125
:1006F80012110230C4000030C500A32B831203136B
:100708004508003A0319892BA32B4408013A031919
:10071800132B033A0319242B013A0319352B073AF3
:1007280003192A2B013A0319402B023A0319722B99
:100738000E3A0319782B033A03197B2BA32B0F309E
:1007480083120313B3000030B4004D2A0A128A1131
:100758000C2883120313AE0010302A062B04031D45
:10076800B62BB72BE12BBE01C301FA01BD01B801BD
:10077800B901BC01FF30AE004530F6008630F70005
:100788008030F8000A128A159B250A128A112D302A
:10079800F6008730F700C030F8000A128A159B254A
:1007A8000A128A115630F6008630F700D030F80069
:1007B8000A128A159B250A128A112A3083120313FA
:1007C8002E060319E82BE92B272C23302E060319B4
:1007D800EE2BEF2B272C2E0A0319F32BF42B272CA7
:1007E8000130AC002C08BE0703303E020318FD2B75
:1007F800FE2B0C2C0A30F20043080A128A15172522
:100808000A128A11831203132E07C300BD01522C4A
:1008180003303E02031C112C122C522C05303E02D0
:100828000318172C182C522C0A30F2007A080A12D6
:100838008A1517250A128A11831203132E07FA0044
:10084800BD01BD0A522C2A302E06031D2C2C2D2C3E
:100858003E2C3D08031D312C322C352CC301BE0122
:10086800522C3D03031D392C3A2C522CFA0102302C
:10087800BE00522C23302E06031D432C442C522C30
:10088800C2010A128A15F1240A128A11073083124A
:100898000313C4000030C500071512150130B8074E
:1008A8000318B90A0030B907103038063904031D97
:1008B8005E2C5F2CE12CB801B9013C080319652CAA
:1008C800672C0130682C0030BC00C630A8000A3004
:1008D800F2000030F3007A08AC00AD012C08F400F7
:1008E8002D08F5000A128A1526270A128A1172089D
:1008F800303E0A128A1502250A128A11C73083125D
:100908000313A8000A30A4000030A5007A08AC0040
:10091800AD012C08A6002D08A7000A128A15682622
:100928000A128A11831203132408303E0A128A1508
:1009380002250A128A11C83083120313A8003A301C
:100948000A128A1502250A128A11C9308312031362
:10095800A8000A30F2000030F3004308AC00AD01F3
:100968002C08F4002D08F5000A128A1526270A1209
:100978008A117208303E0A128A1502250A128A1153
:10098800CA3083120313A8000A30A4000030A5005F
:100998004308AC00AD012C08A6002D08A7000A12D8
:1009A8008A1568260A128A11831203132408303E16
:1009B8000A128A1502250A128A11831203133C08A7
:1009C8000319E72CE82C112D012D3530F60087305E
:1009D800F700C930F8000A128A159B250A128A11F5
:1009E800112D3530F6008730F700C630F8000A12AE
:1009F8008A159B250A128A11112D3D08AC00AD01FC
:100A08002D08003A0319092D112D2C08003A031955
:100A1800E92C013A0319F52C112D08000A128A1540
:100A2800CA250A128A11FD30F6008630F700803098
:100A3800F8000A128A159B250A128A118930831236
:100A48000313A8000A30F2000030F3007A08AA0065
:100A5800AB012A08F4002B08F5000A128A1526278C
:100A68000A128A117208303E0A128A1502250A12E1
:100A78008A118A3083120313A8000A30A4000030B8
:100A8800A5007A08AA00AB012A08A6002B08A7002F
:100A98000A128A1568260A128A1183120313240877
:100AA800303E0A128A1502250A128A118B308312E7
:100AB8000313A8003A300A128A1502250A128A116D
:100AC8008C3083120313A8000A30F2000030F300C0
:100AD8004308AA00AB012A08F4002B08F5000A1203
:100AE8008A1526270A128A117208303E0A128A15B8
:100AF80002250A128A118D3083120313A8000A30C6
:100B0800A4000030A5004308AA00AB012A08A600EB
:100B18002B08A7000A128A1568260A128A1183125E
:100B280003132408303E0A128A1502250A128A1174
:100B38008730F6008630F700C030F8000A128A15B0
:100B48009B250A128A11F430F6008630F70090309F
:100B5800F8000A128A159B250A128A111D30F60020
:100B68008730F700D030F8000A128A159B250A1240
:100B78008A11831203134308031DC32DC42DF82DB6
:100B88007A08031DC82DC92DF82D0A128A15F124DB
:100B98000A128A11E930F6008630F700C030F800F2
:100BA8000A128A159B250A128A11831203138714C5
:100BB8004D3083120313AC001930AB004F30AA003C
:100BC800AA0BE42DAB0BE42DAC0BE42D0A128A150D
:100BD800F1240A128A1183120313871007111211C4
:100BE8000230C4000030C50008000134003401346C
:100C000020342034543465346D3470342E34203420
:100C100049346E34763461346C346934643420344D
:100C20002034003420342034533465347434203478
:100C30007434683465342034543469346D34653424
:100C400020342034003428344C3449344D34493471
:100C5000543420343A34203431343834303420346D
:100C6000433429342034003420344D34693463341F
:100C700072346F34773461347634653420344F34D1
:100C8000763465346E34203400345334453454346F
:100C90002034543449344D344534203428344D34D0
:100CA0004D343A3453345334293400342A343A34EA
:100CB00043344C34453441345234203420342334CA
:100CC0003A3445344E3454344534523400342034AC
:100CD000203450346F3477346534723469346E3470
:100CE000673420344F344E342034203400342034E0
:100CF00020345034723465342D34483465346134D2
:100D0000743469346E346734203420340034203431
:100D100034342E34533474346134723474342F3494
:100D200052346534733475346D346534003453345F
:100D3000453454342034543445344D345034203404
:100D4000283420344334293420340034203470349F
:100D50006F3477346534723420343D342034393480
:100D6000303430345734203400342034543469342F
:100D70006D3465342034523465346D342E343D3452
:100D80002034003450346C34653461347334653449
:100D9000203443346C346F34733465340034443459
:100DA0004F344F34523420346934733420344F3448
:100DB000703465346E34003433342E3443346F343D
:100DC0006E34763465346334743469346F346E341D
:100DD00000342034543469346D346534203455344F
:100DE0007034213420340034203435342E345034DF
:100DF00061347534733465340034543449344D34BB
:100E0000453420343D3420340034543445344D349A
:100E1000503420343D342034003432342E344734BE
:100E2000723469346C346C34003431342E344D34C3
:100E30006934633472346F340034203436342E34E1
:100E4000533474346F347034003434342E345334A7
:100E500074346134723474340034543449344D344D
:100E600045342D34203400342034203420340034F0
:100E70008312031388110815881408146430F200D3
:100E80000030F300FF30F2070318F30AFF30F307D6
:100E9000720A031D4F2F730A031D4F2F502F422F2D
:100EA000831203130618552F562F582F0130F22F97
:100EB00086185B2F5C2F5E2F0230F22F0619612FF0
:100EC000622F642F0330F22F88150811881408143C
:100ED0006430F2000030F300FF30F2070318F30A29
:100EE000FF30F3077308803AFF0080307F02031D54
:100EF0007B2F0130720203187E2F7F2F6C2F8312FD
:100F000003130618842F852F872F0430F22F86189D
:100F10008A2F8B2F8D2F0530F22F0619902F912FAE
:100F2000932F0630F22F88150815881008146430A6
:100F3000F2000030F300FF30F2070318F30AFF302D
:100F4000F3077308803AFF0080307F02031DAA2F49
:100F5000013072020318AD2FAE2F9B2F83120313A3
:100F60000618B32FB42FB62F0730F22F8618B92FDB
:100F7000BA2FBC2F0830F22F0619BF2FC02FC22F57
:100F80000930F22F88150815881408106430F20013
:100F90000030F300FF30F2070318F30AFF30F307C5
:100FA0007308803AFF0080307F02031DD92F013083
:100FB00072020318DC2FDD2FCA2F831203130618C9
:100FC000E22FE32FE52F2A30F22F8618E82FE92FA2
:100FD000EB2F0030F22F0619EE2FEF2FF12F2330D9
:100FE000F22FFF3008008312031312149214FA3008
:100FF0008316031392008C1483120313121108003A
:10100000FF1B0A2883137F1883170008840A03191B
:10101000FF0A08007F087F398A000408840A031940
:04102000FF0A820041
:1019AC00831603138801091189100A128A15C3269C
:1019BC000A128A15080083160313060807388600D6
:1019CC000808F03988008113831203138815081551
:1019DC00881408140800F20101300A128A15322604
:1019EC000A128A150430F7003D30F600F60BFC2C79
:1019FC00F70BFC2C012D080083120313A900F20134
:101A0C0028080A128A1532260A128A15F201F20ADD
:101A1C008312031329080A128A1532260A128A1510
:101A2C000800F500F401751C1C2D1D2D212D7208CC
:101A3C00F3007308F4070310F20D0310F50C75088E
:101A4C00031D292D2A2D192D740808000A128A1538
:101A5C00D6240A128A150A128A15E1240A128A154A
:101A6C008316031307118312031307110A128A1129
:101A7C00F3270A128A150B178B178312031387107F
:101A8C0083160313871086150800F4000A128A11B6
:101A9C0038270A128A15F5007408031D562D572D88
:101AAC00592D75086D2D750A03195D2D5E2D652D4B
:101ABC007B080319622D632D652DFB01572D750ACB
:101ACC00031D692D6A2D6C2DFB01FB0AFF300800EC
:101ADC001530F6008730F7008030F8000A128A15AE
:101AEC009B250A128A150D30F6008730F700C0309E
:101AFC00F8000A128A159B250A128A15DC30F600AA
:101B0C008630F7009030F8000A128A159B250A12CD
:101B1C008A152530F6008730F700D030F8000A120D
:101B2C008A159B250A128A150800F20178080A12F8
:101B3C008A1532260A128A15B92DF201F20A770893
:101B4C00FF00760884000A128A1500200A128A15F2
:101B5C000A128A1532260A128A150130F607031862
:101B6C00F70A0030F707770883120313FF00760893
:101B7C0084000A128A1500200A128A15003A031DE5
:101B8C00C82DC92DA32D0800831203138619CF2D40
:101B9C00D02DFC2D1211071187140A128A15F1246D
:101BAC000A128A15CF30F6008630F700C030F800E4
:101BBC000A128A159B250A128A15C230F600863045
:101BCC00F7009030F8000A128A159B250A128A1524
:101BDC0083120313861DF32DF42DEE2D8710121591
:101BEC0007150A128A15F1240A128A1508008312A5
:101BFC0003138C1C022E032E2B2E0130B607031858
:101C0C00B70A0030B707E23036060430031937063E
:101C1C00031D112E122E2A2EB601B70143080319EB
:101C2C00182E192E1C2E0130C3022A2E4308031D18
:101C3C00202E212E2A2E7A080319252E262E2A2E06
:101C4C000130FA023B30C3008C1071088A00700E10
:101C5C008300FE0E7E0E0900F5007218362E3A2E09
:101C6C008312031309153D2E8312031309117508F2
:101C7C00F03988008914A630F300F30B432E0000D2
:101C8C0083120313891075080F39F3000330031006
:101C9C00F30DFF3E031D4D2E0310730D88008914A8
:101CAC00A630F300F30B582E000083120313891097
:101CBC001B30F4009E30F300F30B622EF40B622EFB
:101CCC0000000800F90183120313A71F6E2E6F2E5C
:101CDC00762EA609A709A60A0319A70AF901F90A7B
:101CEC00A51F792E7A2E7F2EA409A509A40A031903
:101CFC00A50A240825040319842E852EB42EF80178
:101D0C00F80A932E01300310A40DA50DFF3E031D00
:101D1C00892E0130F7007708F807A51F962E972E0D
:101D2C00882E25082702031D9D2E24082602031C3D
:101D3C00A02EA12EA72E2408A6022508031CA7035B
:101D4C00A70201300310A50CA40CFF3E031DA82E06
:101D5C000130F802031DB32EB42E972E7908031907
:101D6C00B82EB92EBE2EA609A709A60A0319A70AD2
:101D7C002708A5002608A4000800C330F700CD30C2
:101D8C00F600F60BC72EF70BC72EF20133300A12F2
:101D9C008A1532260A128A151B30F7009E30F6007F
:101DAC00F60BD62EF70BD62E0000F20133300A12AA
:101DBC008A1532260A128A15A630F600F60BE42E86
:101DCC000000F20133300A128A1532260A128A15E3
:101DDC00EF2EF02E0000F20102300A128A15322684
:101DEC000A128A15A630F600F60BFA2E0000F20144
:101DFC0028300A128A1532260A128A15A630F600E5
:101E0C00F60B062F0000F20101300A128A15322659
:101E1C000A128A150430F7003D30F600F60B142F29
:101E2C00F70B142F192FF2010C300A128A153226D7
:101E3C000A128A15A630F600F60B222F00000800B5
:101E4C0083120313A101F31F2C2F2D2F342FF20912
:101E5C00F309F20A0319F30AA101A10AF51F372F9E
:101E6C00382F412FF409F509F40A0319F50A01304A
:101E7C00F6007608A106A201A301720873040319E7
:101E8C00482F492F802FA001A00A572F0130031093
:101E9C00F20DF30DFF3E031D4D2F0130F6007608B9
:101EAC00A007F31F5A2F5B2F4C2F01300310A20DEC
:101EBC00A30DFF3E031D5C2F73087502031D682FD5
:101ECC0072087402031C6B2F6C2F732F7208F402B0
:101EDC007308031CF503F502221401300310F30CF4
:101EEC00F20CFF3E031D742F0130A002031D7F2F47
:101EFC00802F5B2F21080319842F852F8A2FA2098D
:101F0C00A309A20A0319A30A2308F3002208F2006A
:101F1C00080083120313AD012D08803EA800FF308A
:101F2C000A128A1502250A128A150330831203132A
:101F3C00AC008A30AB005530AA00AA0BA32FAB0B18
:101F4C00A32FAC0BA32F013083120313AA002A0872
:101F5C00AD0710302D02031CB42FB52F922F673014
:101F6C00F6008630F700C030F8000A128A159B255F
:101F7C000A128A153430F6008630F7009030F800DB
:101F8C000A128A159B250A128A1583120313AD01B6
:101F9C002D08D03EA800FF300A128A1502250A121D
:101FAC008A15033083120313AC008A30AB00553012
:101FBC00AA00AA0BDF2FAB0BDF2FAC0BDF2F0130EE
:101FCC0083120313AA002A08AD0710302D02031C3C
:101FDC00F02FF12FCE2F4D3083120313AC0019309C
:101FEC00AB004F30AA00AA0BF92FAB0BF92FAC0B9F
:041FFC00F92F0800B1
:08400000FF3FFF3FFF3FFF3FC0
:02400E00FB3F76
:00000001FF
